:020000040800F2
:10000000880800204501000885300008312A0008D2
:1000100081300008F9080008593A00080000000083
:10002000000000000000000000000000ED300008AB
:100030001D0F000800000000C1300008F13000086A
:100040005F0100085F0100085F0100085F01000810
:100050005F0100085F0100085F0100085F01000800
:100060005F0100085F0100085F010008FD0800084B
:100070005F0100085F0100085F0100085F010008E0
:10008000D10E0008E10E00085F0100085F010008C2
:100090005F0100085F0100085F0100085F010008C0
:1000A0005F0100085F0100085F0100085F010008B0
:1000B0005F0100085F0100085F0100085F010008A0
:1000C0005F0100085F0100085F0100085F01000890
:1000D0005F0100085F0100085F0100085F01000880
:1000E0005F0100085F0100085F0100085F01000870
:1000F0005F0100085F0100085F0100085F01000860
:100100005F0100085F0100085F0100085F0100084F
:100110005F0100085F0100085F0100085F0100083F
:100120005F0100085F0100085F0100085F0100082F
:10013000DFF80CD000F062FB00480047B13D00083A
:10014000880800200648804706480047FEE7FEE78B
:10015000FEE7FEE7FEE7FEE7FEE7FEE7FEE7FEE777
:100160009931000831010008202A04DB203A21FAE5
:1001700002F00021704721FA02F3D040C2F12002C0
:10018000914008431946704740EA01039B0703D09A
:1001900009E008C9121F08C0042AFAD203E011F8C6
:1001A000013B00F8013B521EF9D27047F0B480EADF
:1001B0000102D40F4200B2EB410F02D202460846C0
:1001C00011464A0042D0C30DDDB2C1F3C752AD1A89
:1001D000202D35DAC1F3160141F4000204B1524278
:1001E000C5F1200602FA06F12A411044B3EBD05FB4
:1001F00023D0C4B1012DA0EBC35009DCF0BC4FF0FB
:10020000004202EAC352DBB200F5000000F06ABA15
:10021000400000F1807000EBC350A0F1807040EA14
:10022000D170490009E0490841EAC071A0EBC35010
:1002300000F50000400800EBC350F0BC00F049BAE4
:100240006142012202EB4101001BF6E7F0BC70475E
:1002500081F00041AAE780F00040A7E780EA0102B0
:1002600010B502F00043400022D04A001FD0010E1A
:1002700001EB1261C0F35600C2F3560240F40000D5
:1002800042F40002A0FB022000047F39140400D0D5
:10029000401C50EA124001D44000491EC2B20C0674
:1002A00004EBD010401C4008802A02D003E000205C
:1002B00010BD20F00100002900DA0020184310BD15
:1002C0002DE9FE4F804681EA0300C00F0C460090E6
:1002D00021F0004123F00045B8EB0200A94105D20E
:1002E0004046214690461C460B46024623F00040FD
:1002F000104347D0270DC7F30A00C3F30A510290F9
:10030000401A019040286BDAC3F3130040F4801BBD
:100310000098924620B10023D2EB030A63EB0B0B4B
:1003200001985946C0F14002504600F0B1F9064626
:100330000D4650465946019A00F0B9F910EB0800F5
:100340006141002487EA115284EAE7731A4340D0DE
:10035000009A62B3019A012A4FEA075215DC001B8A
:1003600061EB02014FF0004202EA0752CDE9004280
:10037000001C41F5801132462B4600F0F0F903B025
:10038000BDE8F08F40462146F9E7001B61EB020112
:10039000001C41F5801300185B412018A2F50017DE
:1003A00047EB030140EAD570B6196D4111E06D08C5
:1003B0004FEA360645EAC0754FEA0752001B61EB6B
:1003C0000201001C41F5801149084FEA3000001974
:1003D000514132462B4603B0BDE8F04F00F0B0B9B2
:1003E0000098012240000023D0EB020263EBE0738F
:1003F000009821464FEAE074B8EB000061EB04017D
:10040000E9E783F000435BE781F0004158E72DE91D
:10041000FE4F81EA030404F0004421F000410094FF
:100420004FF0000B23F0004350EA01045ED052EA83
:1004300003045BD0C3F30A54C1F30A552C44A4F25D
:10044000F3340194A0FB0254C1F3130141F4801171
:10045000C3F3130343F4801301FB024400FB034E78
:10046000840A970A44EA815447EA8357A4FB076841
:1004700002958D0A05FB07854FEA932C04FB0C546B
:100480002705029D4FEA065847EA1637B5EB0805DF
:100490006EEB070C870E920E47EA811742EA831231
:1004A000A7FB0201B6EB0B0164EB00042B0D43EA42
:1004B0000C335E1844EB1C50DA465146E7FB020150
:1004C000C5F313044FEA0B3343EA14534FEA0432E3
:1004D000019C43EA0603A4F10C040294009CCDE9BC
:1004E00000B400F03CF903B0BDE8F08F00200146F5
:1004F000F9E796230022114600F0F4B80EB5C10FBB
:1005000080EAE0700844CA07002140F233438DE8D6
:100510000E000A460B4600F022F903B000BD0EB5EE
:1005200040F2334102910021CDE900110A460B4609
:1005300000F015F903B000BD00F0004220F00040CB
:10054000C10DC0F3160040F400007F2901DA00203D
:100550007047962903DCC1F19601C84001E0963945
:100560008840002AF4D04042704770B5C1F30A5267
:1005700001F000450024C1F3130140F2FF3341F4C0
:1005800080119A4201DA002070BD40F233439A4252
:10059000A2F2334203DC5242FFF7E6FD00E0904056
:1005A0002C43F1D0404270BD00F0004230F00040DA
:1005B0000AD0C10D01F56071C0F3160042EA015185
:1005C000C2084007114370470020014670470000F1
:1005D00030B5041E71F1000404DB4FF000444042CA
:1005E00064EB0101141E73F1000405DB1C464FF09F
:1005F0000043524263EB04038B4208BF824230BD8A
:1006000030B5041E71F1000404DB4FF00044404299
:1006100064EB0101141E73F1000405DB1C464FF06E
:100620000043524263EB0403994208BF904230BD3D
:1006300001F0004330B421F0004150EA010206D03D
:100640000A0DA2F56072C1F31301002A02DC30BC6E
:1006500000207047440F44EAC104C100E01830BCD8
:1006600000EBC25000F035B8002801DBC0F10040BB
:10067000002901DBC1F1004181427047002801DB04
:10068000C0F10040002901DBC1F100418842704700
:10069000202A04DB203A00FA02F100207047914042
:1006A000C2F1200320FA03F3194390407047202A37
:1006B00006DBCB17203A41FA02F043EAE07306E08A
:1006C00041FA02F3D040C2F120029140084319469A
:1006D00070470029A8BF7047401C490008BF20F0A0
:1006E0000100704710B4B0FA80FC00FA0CF050EA38
:1006F000010404BF10BC704749B1CCF1200421FAB9
:1007000004F411FA0CF118BF012121430843A3EBB3
:100710000C01CB1D4FEA00614FEA102042BF0020C0
:1007200010BC704700EBC35010440029A4BF10BC9C
:100730007047401C490008BF20F0010010BC704702
:1007400010B5141E73F1000408DA401C41F10001D9
:1007500092185B411A4301D120F0010010BD2DE930
:10076000F04D92469B4611B1B1FA81F202E0B0FA27
:1007700080F220329046FFF78BFF04460F4640EA96
:100780000A0041EA0B0153465A46084313D011466A
:1007900053EA010019D0C8F140025046FFF7E4FCCB
:1007A00005460E46504659464246FFF771FF08433C
:1007B00005D0012004E020463946BDE8F08D002038
:1007C000054346EAE0762C4337430A986305E40A7A
:1007D000A0EB08000022FD0A44EA47540A3002D583
:1007E00000200146E9E7010510196941DDE90845E6
:1007F00000196941BDE8F04DA2E70000064C074D25
:1008000006E0E06840F0010394E8070098471034E0
:10081000AC42F6D3FFF790FCEC4300080C44000810
:1008200070B5044600252068806800F00100F0B132
:100830002068806820F001002168886001F0CAF912
:1008400005460EE001F0C6F9401B022809D9A06A4E
:1008500040F01000A062E06A40F00100E062012078
:1008600070BD2068806800F001000028EAD10020F7
:10087000F6E7000038B50446002500200090206807
:10088000806800F0010080BB2068806840F00100B3
:1008900021688860164800681649B0FBF1F00090A6
:1008A00002E00098401E009000980028F9D101F065
:1008B00091F9054613E001F08DF9401B02280ED98D
:1008C000A06A40F01000A062E06A40F00100E0621F
:1008D00000BF002084F8240000BF012038BD20683C
:1008E000806800F001000028E5D00020F6E7000055
:1008F000B000002040420F0000BFFEE72DE9F04F9E
:1009000097B00220F9494860F9480068B0F57A7F4D
:1009100043DAF7480068401CF5490860F5498988C2
:10092000F54A1268881800EBD0714910F24A11603C
:10093000F049C988F14A1268881800EBD071491053
:10094000EE4A1160EB490988ED4A1268881800EBFD
:10095000D0714910EA4A1160E6494988E94A1268AB
:10096000881800EBD0714910E64A1160E1494989C5
:10097000E54A1268881800EBD0714910E24A11600C
:10098000DC490989E14A1268881800EBD0714910E6
:10099000DE4A116017B0BDE8F08FDD4800684FF403
:1009A0007A71B0FBF1F201FB120040BBD14988899A
:1009B000FFF79FFDD7490090FFF750FC0190FFF72C
:1009C000F3FDD54AD54BCDE90201FFF720FDCDE976
:1009D0000601D3480068FFF7E7FDD24AD24BCDE9C4
:1009E0000201FFF714FDCDE90401DDE90623FFF75D
:1009F00067FCCDE90801FFF71BFEC9490860BD4946
:100A00004989C14A1268881AFFF778FDC24AC74B64
:100A1000CDE90401FFF7FBFC00221346CDE90601F6
:100A2000FFF7D6FD0FD2B3494989B74A1268881A31
:100A3000FFF764FDB84ABD4BCDE90601FFF7E7FCBF
:100A400081F000410CE0AB494989AF4A1268881A2D
:100A5000FFF754FDB04AB54BCDE90601FFF7D7FCCF
:100A60000022B34BCDE90801FFF7CAFD06D3B14818
:100A70000068052802D8B048007830B9AF4800684F
:100A800020F40040AD49086005E0AC48006840F43F
:100A90000040AA490860974909899C4A1268881A47
:100AA000FFF72CFD9C4AA14BCDE90401FFF7AFFCF9
:100AB00000221346CDE90601FFF78AFD0FD28D49CA
:100AC0000989924A1268881AFFF718FD924A974BD3
:100AD000CDE90601FFF79BFC81F000410CE0854960
:100AE00009898A4A1268881AFFF708FD8A4A8F4BDB
:100AF000CDE90601FFF78BFC00228D4BCDE9080103
:100B0000FFF77EFD06D38B480068052802D88A4887
:100B1000007830B98A48006820F4004088490860AD
:100B200005E08748006840F4004085490860854832
:100B30000068012121EA50148248006821EA9015DA
:100B40008048006821EAD0167F48806821EA902713
:100B50007D48806821EAD0287B48806821EA1039E6
:100B600004EB450000EB860A784810F80A00784943
:100B7000086008460068801C086008460068062176
:100B800090FBF1F201FB12007149086007EB48008D
:100B900000EB890B6D4810F80B006E4908600846A1
:100BA0000068801C086008460068062190FBF1F28E
:100BB00001FB1200674908604E48C0884F4B1B6814
:100BC000C21A4C4880884C4B1B68C11A624B604863
:100BD000006802F086FF4E480068401C4C490860DF
:100BE0005E480068D8B10846006841F28831B0FB21
:100BF000F1F15B480068401CB1FBF0F200FB121001
:100C000068B94348006855490968B0FBF1F201FB37
:100C1000120048B91021534800F0D2FF04E000222E
:100C20001021504800F0D0FF13A814AB15AA009073
:100C3000474801684C48006802F01FFF10A811AB3C
:100C400012AA0090434801684848006802F015FF66
:100C500045480068002812DD3D480068401D062117
:100C600090FBF1F201FB120009900DA80EAB0FAA48
:100C700000903F480999006802F0FFFE12E03448F6
:100C80000068401C062290FBF2F102FB1100099063
:100C90000DA80EAB0FAA0090354809990068404294
:100CA00002F0EBFE0F991598084415900E991498D0
:100CB000084414900D991398084413902B48006829
:100CC000002859DD23480068401D062190FBF1F201
:100CD00001FB120009900AA80BAB0CAA0090254852
:100CE0000999006802F0C9FE59E0000000000240C6
:100CF00028000020EC0300202C0000203000002001
:100D000034000020380000203C000020400000207B
:100D10002400002017B9CE3C7B14AE47E17A843F13
:100D200044000020AE47E17A14AEEF3FE17A943FF1
:100D300000002E405C0000202000002044340140D0
:100D4000442C0140080C014000100140C843000839
:100D500000000020040000204800002018000020AF
:100D60001C00002000080140080000200C000020AA
:100D7000100000201400002051480068401C06218B
:100D800090FBF1F201FB120009900AA80BAB0CAA30
:100D900000904C4809990068404202F06EFE0C99A0
:100DA0001298084412900B991198084411900A99CE
:100DB000109808441090159800F57A7040F2C671AA
:100DC000884201DD084609E0159800F57A700A2886
:100DD00001DA0A2002E0159800F57A703A490860B5
:100DE000149800F57A7040F2C671884201DD084619
:100DF00009E0149800F57A700A2801DA0A2002E066
:100E0000149800F57A703049091D0860139800F5B0
:100E10007A7040F2C671884201DD084609E01398F5
:100E200000F57A700A2801DA0A2002E0139800F52A
:100E30007A70254908310860129800F57A7040F2FE
:100E4000C671884201DD084609E0129800F57A7003
:100E50000A2801DA0A2002E0129800F57A701B498C
:100E60000860119800F57A7040F2C671884201DD81
:100E7000084609E0119800F57A700A2801DA0A207C
:100E800002E0119800F57A701049091D0860109869
:100E900000F57A7040F2C671884201DD084609E02B
:100EA000109800F57A700A2801DA0A2002E01098FA
:100EB00000F57A7005490831086000BF6AE5000056
:100EC000040000201400002034340140342C014080
:100ED00010B5024800F058FA10BD0000640300206D
:100EE00010B5024800F050FA10BD0000A803002021
:100EF00030B590F840500124AC40C56B6C6004687C
:100F000063604468102C04D10468A2600468E16046
:100F100003E00468A1600468E26030BD704700002F
:100F200010B58CB00246002300BF92F824000128BF
:100F300002D102200CB010BD012082F8240000BFB5
:100F4000124800901068806800F0010088B900988D
:100F5000806800F0010060B90D4C1068A04208D113
:100F60001068406820F470200C68204314686060AA
:100F700004E0906A40F020009062012300BF00204E
:100F800082F8240000BF1846D4E700000028014082
:100F90000024014038B5024600230020009000BF25
:100FA00092F82400012801D1022038BD012082F8E6
:100FB000240000BF4868072812D21068406B0C79E3
:100FC000641E04EB84051F24AC40A0430D796D1E04
:100FD00005EB85050C68AC4020431468606327E08E
:100FE00048680D2812D21068006B0C79E41F04EBDE
:100FF00084051F24AC40A0430D79ED1F05EB85054A
:101000000C68AC4020431468206311E01068C06A8B
:101010000C790D3C04EB84051F24AC40A0430D79F2
:101020000D3D05EB85050C68AC4020431468E0627B
:1010300008680A2812D31068C0680C780A3C04EBD0
:1010400044050724AC40A0430D780A3D05EB450557
:101050008C68AC4020431468E0600FE010680069C1
:101060000C7804EB44050724AC40A0430D7805EB55
:1010700045058C68AC40204314682061086810283E
:1010800002D00868112827D1174C1068A0421ED141
:101090001068806800F40000F0B91068806840F4BF
:1010A00000001468A0600868102815D10F48006877
:1010B0000F4CB0FBF4F000EB80004000009002E029
:1010C0000098401E009000980028F9D104E0906A32
:1010D00040F020009062012300BF002082F824002D
:1010E00000BF184661E7000000240140B000002066
:1010F00040420F002DE9F04104460027002500265C
:10110000A84614B90120BDE8F081A06810B160695B
:1011100000B100BFA06A30B90020E06284F824006A
:10112000204600F097F82046FFF77AFB0746A06AB2
:1011300000F01000002873D1002F7ED1A06A20F4A7
:10114000885040F00200A0623F4AD4E9000190427A
:1011500008D1E069B0F5402F02D14FF4002002E041
:10116000E06900E0E0690143E06841EA40000643CD
:10117000A068B0F5807F02D0A068012802D14FF4AA
:10118000807000E0002005436069012811D1E0680B
:1011900038B9A069401E4FF4006141EA4030054370
:1011A00007E0A06A40F02000A062E06A40F0010081
:1011B000E0622068406820F4694028432168486064
:1011C0002068806821490840304321688860A06811
:1011D000B0F5807F02D0A068012802D14FF4807062
:1011E00000E00020B0F5807F03D1208A401E4FEA46
:1011F00000582068C06A20F4700040EA08002168A6
:10120000C8622068806812490840B04209D10020B5
:10121000E062A06A20F0020040F00100A06211E04C
:101220000BE0A06A20F0020040F01000A062E06A2B
:1012300040F00100E062012704E0A06A40F01000E5
:10124000A062012738465EE7003C0140FDF7E1FF60
:10125000FE0E1FFF7047000070B50446002500BF5A
:1012600094F82400012801D1022070BD012084F8E7
:10127000240000BF2046FFF7FDFA0546002D77D178
:10128000A06A40F20121884340F48070A0623C498A
:101290002068884208D13B48006800F4702008B9F3
:1012A000012002E0002000E0012078B1A06A20F4D3
:1012B0008010A0622068406800F4806000B3A06ADB
:1012C00020F4005040F48050A06219E0A06A40F47D
:1012D0008010A0622B49091F2068884203D028494A
:1012E0002068884204D12748006800F4806000E04C
:1012F000002028B1A06A20F4005040F48050A06281
:10130000A06A00F4805020B1E06A20F00600E0629C
:1013100001E00020E06200BF002084F8240000BF4C
:10132000C01E216808602068806800F46020B0F565
:10133000602F16D112492068884208D111480068F0
:1013400000F4702008B9012002E0002000E0012034
:1013500038B12068806840F4A000216888600CE003
:1013600006E02068806840F480102168886004E00E
:1013700000BF002084F8240000BF284675E7000065
:10138000002801400424014070B50446E06B056864
:101390002068066894F840100420884028400028FF
:1013A00075D006F004000028FAD02068006800F02C
:1013B000200028B92068006820F004002168086037
:1013C000D5492068884254D9D34978392068884261
:1013D00001D1042049E0D04964392068884201D114
:1013E000402042E0CC4950392068884201D10015A4
:1013F0003BE0C9493C392068884202D14FF4804023
:1014000033E0C54928392068884202D14FF4802052
:101410002BE0C14914392068884202D14FF4800082
:1014200023E0BD492068884201D1C0041DE0BB49CA
:101430002068884201D1042017E0B849143120689F
:10144000884201D1402010E0B44928312068884208
:1014500001D1001509E0B1493C312068884202D130
:101460004FF4804001E04FF48020AC49091F086030
:1014700054E0A94978392068884201D104204AE023
:10148000A54964392068884202D1402043E04CE0FD
:10149000A14950392068884201D100153BE09E499E
:1014A0003C392068884202D14FF4804033E09A49A9
:1014B00028392068884202D14FF480202BE09649D9
:1014C00014392068884202D14FF4800023E0924909
:1014D0002068884201D1C0041DE0904920688842FC
:1014E00001D1042017E08D4914312068884201D1D0
:1014F000402010E0894928312068884201D1001538
:1015000009E086493C312068884202D14FF480408E
:1015100001E04FF48020804980394860E06A00286B
:1015200002D02046E16A8847F4E094F84010022097
:1015300088402840002871D006F002000028FAD028
:101540002068006800F0200040B92068006820F0A2
:101550000A0021680860012084F821006E49206893
:10156000884254D96C4978392068884201D10220D8
:1015700049E0694964392068884201D1202042E06D
:10158000654950392068884201D140153BE06249E5
:101590003C392068884202D14FF4005033E05E4964
:1015A00028392068884202D14FF400302BE05A4994
:1015B00014392068884202D14FF4001023E05649C4
:1015C0002068884201D180041DE054492068884287
:1015D00001D1022017E0514914312068884201D11D
:1015E000202010E04D4928312068884201D1401563
:1015F00009E04A493C312068884202D14FF400504A
:1016000001E04FF400304549091F086054E04249A9
:1016100078392068884202D102204AE057E03E49EA
:1016200064392068884201D1202042E03A4950398B
:101630002068884201D140153BE037493C39206899
:10164000884202D14FF4005033E0334928392068F2
:10165000884202D14FF400302BE02F491439206822
:10166000884202D14FF4001023E02B4920688842C1
:1016700001D180041DE029492068884201D102205F
:1016800017E0264914312068884201D1202010E05B
:10169000224928312068884201D1401509E01F49BC
:1016A0003C312068884202D14FF4005001E04FF4F1
:1016B000003019498039486000BF002084F82000BC
:1016C00000BFA06A30B32046A16A884722E094F8A0
:1016D0004010082088402840E0B106F00800C8B15A
:1016E0002068006820F00E002168086094F840101F
:1016F00001208840E16B48600120A06384F821004C
:1017000000BF002084F8200000BF206B10B12046ED
:10171000216B884770BD0000800002400804024031
:101720000146002209B9012070471E4B0868984203
:101730000BD21D4B0868C01A1423B0FBF3F08000D5
:10174000086419480838C8630AE0164B0868C01ACC
:101750001423B0FBF3F08000086412480838C86313
:10176000022081F821000868026843F6F070824385
:10177000D1E901031843CB6818430B6918434B693F
:1017800018438B691843CB69184302430868026009
:1017900000208863012081F82100002081F82000CA
:1017A00000BFC1E708040240080002402DE9F041F3
:1017B00004460D4616461F464FF0000800BF94F839
:1017C0002000012802D10220BDE8F081012084F828
:1017D000200000BF94F8210001282CD1022084F8B9
:1017E00021000020A0632068006820F0010021682B
:1017F00008603B46324629462046FFF779FBE06AFF
:1018000030B12068006840F00E00216808600BE0ED
:101810002068006820F004002168086020680068E3
:1018200040F00A00216808602068006840F001006C
:101830002168086006E000BF002084F8200000BF97
:101840004FF002084046BFE770B5044600F0C2F909
:1018500006462546681C10B104480078054400BFC0
:1018600000F0B8F9801BA842FAD370BDAC0000208C
:101870002DE9F84702460024002000258446002771
:1018800000237BE14FF0010808FA03F4D1F800804F
:1018900008EA0400A0427DD1DFF8ECA2D1F8048070
:1018A000A8EB0A09D0453AD014DCB8F1030F50D0A8
:1018B00009DCB8F1000F31D0B8F1010F1CD0B8F13C
:1018C000020F49D120E0B8F1110F18D0B8F1120F72
:1018D00042D11EE0B9F5881F25D006DCB9F5803F5E
:1018E00020D0B9F5801F37D11AE0B9F5001F18D004
:1018F000B9F5041F30D117E0D1F80CC02DE0D1F8B4
:101900000C8008F1040C28E0D1F80C8008F1080CD8
:1019100023E0D1F80C8008F10C0C1EE000BF00BFE2
:1019200000BF00BF00BF00BFD1F80880B8F1000FB2
:1019300002D14FF0040C0BE0D1F80880B8F1010F90
:1019400003D14FF0080C146102E04FF0080C546111
:1019500003E04FF0000C00E000BF00BFFF2801D8FB
:10196000904601E002F104084646FF2802D84FEAFB
:10197000830803E0A3F108084FEA88084746D6F831
:1019800000804FF00F0909FA07F928EA09080CFA54
:1019900007F900E07AE048EA0908C6F80080D1F8C3
:1019A000048008F08058B8F1805F6FD100BFDFF885
:1019B000DC81D8F8188048F00108DFF8D091C9F828
:1019C0001880C846D8F8188008F00108CDF80080C3
:1019D00000BF00BF4FEAB9384FEA930958F82950C1
:1019E0004FEA83784FEA18794FF00F0808FA09F8A0
:1019F00025EA0805DFF89881424502D14FF000083A
:101A000024E0DFF89081424502D14FF001081DE04B
:101A1000DFF88481424502D14FF0020816E0DFF87A
:101A20007C81424502D14FF003080FE0DFF870815E
:101A3000424502D14FF0040808E0DFF868814245D2
:101A400002D14FF0050801E04FF006084FEA837914
:101A50004FEA197908FA09F848EA0505DFF84881DC
:101A60004FEA930948F82950D1F8048008F48038E7
:101A7000B8F5803F0BD1DFF83481D8F8008048EA10
:101A80000008DFF82891C9F800800AE075E0DFF867
:101A90001C81D8F8008028EA0008DFF81091C9F806
:101AA0000080D1F8048008F40038B8F5003F0ED16A
:101AB000DFF8F88008F10408D8F8008048EA000848
:101AC000DFF8E89009F10409C9F800800DE0DFF8BB
:101AD000DC8008F10408D8F8008028EA0008DFF864
:101AE000CC9009F10409C9F80080D1F8048008F409
:101AF0008018B8F5801F0ED1DFF8B08008F1080813
:101B0000D8F8008048EA0008DFF8A09009F1080939
:101B1000C9F800800DE0DFF8948008F10808D8F8D3
:101B2000008028EA0008DFF8849009F10809C9F864
:101B30000080D1F8048008F40018B8F5001F0ED119
:101B4000DFF8688008F10C08D8F8008048EA00083F
:101B5000DFF8589009F10C09C9F800800DE0DFF8B2
:101B60004C8008F10C08D8F8008028EA0008DFF85B
:101B70003C9009F10C09C9F800805B1C102BFFF4A4
:101B800081AEBDE8F887000000001110001002408F
:101B900000080140000C0140001001400014014009
:101BA00000180140001C01400800014000040140F1
:101BB000024693680B400BB1012000E00020704703
:101BC000C2684A40C26070470AB1016101E00B047B
:101BD000036170470148006870470000A4000020BE
:101BE00003480068034909780844014908607047C0
:101BF000A4000020AC00002010B50848006840F0A8
:101C0000100006490860032000F0A6F8002000F04C
:101C100007F800F02BF8002010BD00000020024063
:101C200070B504460E4800784FF47A71B1FBF0F0BD
:101C30000C490968B1FBF0F5284600F0C6FC08B174
:101C4000012070BD102C07D200222146501E00F04A
:101C500044F80548046001E00120F2E70020F0E7C5
:101C6000AC000020B0000020A800002008B500BF94
:101C70001148806940F001000F4988610846806979
:101C800000F00100009000BF00BF00BF0846C0691F
:101C900040F08050C8610846C06900F08050009054
:101CA00000BF00BF00BF0549486820F0E06040F079
:101CB0000070486000BF08BD0010024000000140F5
:101CC00000BF00F01F02012191404209920002F181
:101CD000E022C2F8001100BF70472DE9F05F804696
:101CE0000D461646002701F0CFF9074639462A4629
:101CF000334601F00700C0F1070ABAF1040F02D918
:101D00004FF0040A01E0C0F1070AD14600F1040ACD
:101D1000BAF1070F02D24FF0000A01E0A0F1030A66
:101D2000D4464FF0010A0AFA09FAAAF1010A0AEAAE
:101D3000020A0AFA0CFA4FF0010B0BFA0CFBABF19A
:101D4000010B0BEA030B4AEA0B042146404601F063
:101D5000A3F9BDE8F09F000000BF00F00702064BAA
:101D600019684FF6FF031940044B0B4343EA022165
:101D7000014B196000BF70470CED00E00000FA0550
:101D8000F8B5044600260025207800F00100002860
:101D90006BD000274348C06900F0805070B900BF85
:101DA0004048C06940F080503E49C8610846C0695B
:101DB00000F08050009000BF00BF01273A48006843
:101DC00000F48070B0B93848006840F4807036493B
:101DD0000860FFF7FFFE064606E0FFF7FBFE801BEC
:101DE000642801D90320F8BD2F48006800F48070F2
:101DF0000028F2D02B48006A00F440752DB3A0886B
:101E000000F44070A84220D02648006A20F44075B3
:101E1000012026490860002008602248056205F07C
:101E2000010090B1FFF7D6FE064608E0FFF7D2FEAC
:101E3000801B41F28831884201D90320D3E7194839
:101E4000006A00F002000028F0D01648006A20F472
:101E500040706168084313490862012F04D10846A5
:101E6000C06920F08050C86100BF207800F00200F7
:101E7000022807D10B48406820F44040A16808437D
:101E800008494860207800F01000102807D1054864
:101E9000406820F4800061690843024948600020DE
:101EA000A1E70000001002400070004040044242E0
:101EB00070B504460D4600266D48006800F0070026
:101EC000A8420ED26A48006820F0070028436849FB
:101ED00008600846006800F00700A84201D0012011
:101EE00070BD207800F0020002281DD1207800F09B
:101EF0000400042805D15F48406840F4E0605D4973
:101F00004860207800F00800082805D1594840684A
:101F100040F46050574948605648406820F0F0004F
:101F2000A168084353494860207800F00100002868
:101F30005DD06068012806D14E48006800F400308A
:101F400090B90120CCE76068022806D149480068B2
:101F500000F0007040B90120C2E74648006800F078
:101F6000020008B90120BBE74248406820F00300A6
:101F7000616808433F494860FFF72CFE06466068E9
:101F8000012810D108E0FFF725FE801B41F28831BF
:101F9000884201D90320A3E73648406800F00C00CE
:101FA0000428F0D123E06068022810D108E0FFF790
:101FB00011FE801B41F28831884201D903208FE74E
:101FC0002C48406800F00C000828F0D10FE008E031
:101FD000FFF700FE801B41F28831884201D90320BF
:101FE0007EE72448406800F00C000028F0D120482B
:101FF000006800F00700A8420ED91D48006820F0D4
:10200000070028431A4908600846006800F00700E6
:10201000A84201D0012063E7207800F004000428E2
:1020200007D11448406820F4E060E1680843114992
:102030004860207800F00800082808D10D48406862
:1020400020F46050216940EAC1000A49486000F06C
:102050003DF808494968C1F30311074A515CC8407B
:10206000064908600020FFF7DBFD002038E700008C
:102070000020024000100240D4430008B0000020BD
:102080000148006870470000B000002000B5FFF76D
:10209000F7FF04494968C1F30221034A515CC84073
:1020A00000BD000000100240E443000800B5FFF747
:1020B000E7FF04494968C1F3C221034A515CC840A3
:1020C00000BD000000100240E4430008F0B585B0F8
:1020D0000FF26C0C9CE8E01001A8A0E8E0101CA531
:1020E0002D68009500210022002300240020194DB6
:1020F000696801F00C05F5B1042D02D0082D19D145
:1021000001E0154819E001ADC1F38346AC5D01F46F
:10211000803555B10F4D6D68C5F340451DF805205C
:102120000D4D6543B5FBF2F302E00C4D04FB05F3E6
:10213000184602E000BF084800BF00BF05B0F0BD70
:1021400002030405060708090A0B0C0D0E0F1010F8
:10215000010200000010024000127A0000093D0058
:10216000F8B504460025207800F00100002878D05A
:10217000F848406800F00C0004280CD0F54840688E
:1021800000F00C00082811D1F248406800F48030BB
:10219000B0F5803F0AD1EF48006800F40030002815
:1021A0005FD0606800285CD10120F8BD00BF606886
:1021B000B0F5803F06D1E748006840F48030E5493B
:1021C000086028E0606858B9E248006820F4803070
:1021D000E04908600846006820F4802008601AE0A2
:1021E0006068B0F5A02F0BD1DA48006840F4802079
:1021F000D84908600846006840F4803008600AE06A
:10220000D448006820F48030D2490860084600684D
:1022100020F48020086000BF606888B1FFF7DAFC16
:10222000054606E0FFF7D6FC401B642801D90320D1
:10223000BBE7C848006800F400300028F2D010E086
:10224000FFF7C8FC054606E0FFF7C4FC401B642806
:1022500001D90320A9E7BF48006800F40030002836
:10226000F2D1207800F00200022857D1B948406826
:1022700000F00C0050B1B748406800F00C0008288E
:1022800018D1B448406800F4803098B9B14800686B
:1022900000F0020020B12069012801D0012084E76C
:1022A000AC48006820F0F800616940EAC100A94923
:1022B000086033E02069E8B10120A7490860FFF712
:1022C00089FC054606E0FFF785FC401B022801D982
:1022D00003206AE79F48006800F002000028F2D05F
:1022E0009C48006820F0F800616940EAC100994903
:1022F000086013E0002098490860FFF76BFC054672
:1023000006E0FFF767FC401B022801D903204CE7D9
:102310009048006800F002000028F2D1207800F018
:10232000080008282DD1A069B8B101208B490860A8
:10233000FFF750FC054606E0FFF74CFC401B022867
:1023400001D9032031E78348406A00F002000028E9
:10235000F2D0012000F0B6FE13E000207F490860B3
:10236000FFF738FC054606E0FFF734FC401B022867
:1023700001D9032019E77748406A00F002000028DD
:10238000F2D1207800F00400042873D100267148AF
:10239000C06900F0805070B900BF6E48C06940F05D
:1023A00080506C49C8610846C06900F080500090B8
:1023B00000BF00BF01266A48006800F48070B0B911
:1023C0006748006840F4807065490860FFF702FCC8
:1023D000054606E0FFF7FEFB401B642801D90320F9
:1023E000E3E65F48006800F480700028F2D000BF88
:1023F000E068012806D15748006A40F001005549BD
:10240000086227E0E06858B95248006A20F00100ED
:10241000504908620846006A20F00400086219E08A
:10242000E06805280BD14B48006A40F00400494998
:1024300008620846006A40F0010008620AE0454868
:10244000006A20F00100434908620846006A20F053
:102450000400086200BFE068A0B1FFF7BBFB0546BF
:1024600009E0FFF7B7FB401B41F28831884202D9EF
:1024700003209AE622E03748006A00F002000028B4
:10248000EFD012E0FFF7A6FB054608E0FFF7A2FB3E
:10249000401B41F28831884201D9032085E62D484E
:1024A000006A00F002000028F0D1012E05D1294871
:1024B000C06920F080502749C86100BFE069C8B3F7
:1024C0002448406800F00C00082860D0E069022829
:1024D00048D1002020490866FFF77CFB054606E04E
:1024E000FFF778FB401B022801D903205DE619485D
:1024F000006800F000700028F2D1206AB0F5803F3B
:1025000007D11448406820F40030A16808431149FD
:102510004860D4E9080108430E49496821F4741160
:1025200008430C49486001200B490866FFF752FB3D
:10253000054607E02DE0FFF74DFB401B022801D9BF
:10254000032032E60348006800F000700028F2D053
:102550001FE000000010024000004242800442429E
:102560000070004000200C490866FFF733FB054669
:1025700006E0FFF72FFB401B022801D9032014E6D9
:102580000648006800F000700028F2D101E0012048
:102590000BE6002009E60000000042420010024065
:1025A000042808D14FF0E021096941F004014FF0FF
:1025B000E022116107E04FF0E021096921F00401F8
:1025C0004FF0E02211617047704770B50446254610
:1025D000681EB0F1807F01D301200FE0681E4FF02C
:1025E000E02148610F214FF0FF3000F055FD002041
:1025F0004FF0E021886107200861002070BD10B510
:10260000FFF7E2FF10BD10B50346002200BF93F8AC
:102610003C00012801D1022010BD012083F83C00BC
:1026200000BF22F0FF00CC6840EA040222F44070B0
:102630008C6840EA040222F480604C6840EA04029C
:1026400022F400600C6840EA040222F480500C6915
:1026500040EA040222F400504C6940EA040222F4E9
:1026600080408C6940EA040222F400408C6940EA10
:1026700004021868426400BF002083F83C0000BFD9
:1026800000BFC9E7024600BF92F83C00012801D113
:1026900002207047012082F83C0000BF022082F82F
:1026A0003D001068406820F07000136858601068A2
:1026B00040680B681843136858601068806820F001
:1026C000800013689860106880684B68184313682E
:1026D0009860012082F83D0000BF002082F83C0095
:1026E00000BF00BFD5E770B504460D460422294659
:1026F000206800F0D7FD2068406C40F4004021685D
:1027000048642068006840F00100216808600020EB
:1027100070BD70B504460D46164600BF94F83C00E7
:10272000012801D1022070BD012084F83C0000BFC7
:10273000022084F83D0036B1042E1BD0082E31D083
:102740000C2E5ED145E02946206800F0C5FD2068CA
:10275000806940F00800216888612068806920F065
:10276000040021688861206880692969084321681C
:10277000886147E02946206800F0EAFD206880690A
:1027800040F40060216888612068806920F48060DE
:102790002168886120688069296940EA01202168F0
:1027A00088612FE02946206800F012FE2068C06989
:1027B00040F008002168C8612068C06920F004006A
:1027C0002168C8612068C069296908432168C86117
:1027D00018E02946206800F03BFE2068C06940F4FC
:1027E00000602168C8612068C06920F480602168A9
:1027F000C8612068C069296940EA01202168C86170
:1028000000E000BF00BF012084F83D0000BF0020B1
:1028100084F83C0000BF00BF85E710B504460CB942
:10282000012010BD94F83D0028B9002084F83C0038
:10283000204600F00CF8022084F83D00211D20689D
:1028400000F0D6FC012084F83D000020E9E7704745
:1028500030B504460D4601222946206800F014FDDB
:102860000C492068884203D00B492068884201D176
:10287000012000E0002028B12068406C40F40040B6
:10288000216848642068006840F001002168086001
:10289000002030BD002C01400034014070B50446DA
:1028A0000D4600BF94F83C00012801D1022070BD04
:1028B000012084F83C0000BF022084F83D00294636
:1028C000204600F0F1FD2068C06820F0400021683B
:1028D000C8602068C06820F480402168C86001207A
:1028E00084F83D0000BF002084F83C0000BF00BF1A
:1028F000DDE7704710B504460CB9012010BDA06992
:1029000000B100E000BF94F8390028B9002084F835
:102910003800204600F027F8242084F83900206889
:10292000C06820F400502168C860204600F0B0FF65
:102930002068006920F4904021680861206840699F
:1029400020F02A00216848612068C06840F40050E7
:102950002168C8600020E063202084F8390084F8F2
:102960003A000020CAE7704777B581B004461546A3
:1029700094F83A00202850D1029800B115B90120EE
:1029800004B070BD00BF94F83800012801D10220C6
:10299000F6E7012084F8380000BF0298A062A58500
:1029A0000020E063222084F83A001D48616B8862B1
:1029B0001C48616BC8621C48616B08630020616B36
:1029C000486302AE32682368191D2B46606BFEF720
:1029D000EDFE00BF00200090206800680090206895
:1029E0004068009000BF00BF00BF002084F838009E
:1029F00000BF2068C06840F480702168C86020680B
:102A0000406940F00100216848612068406940F059
:102A10004000216848610020B2E70220B0E70000D2
:102A2000593700089F37000809370008704770477A
:102A300000BFFEE700B585B000BF4C48806940F498
:102A400000704A4988610846806900F4007000906F
:102A500000BF00BF4648474908608115454881606E
:102A60000021C16041614FF44021C1610020414912
:102A7000486005213F480161FEF73CFB00BF3E492D
:102A8000486840F0E06040F48020486000BF4FF4A8
:102A9000C020049004A93748FEF742FA01200390B1
:102AA0000E2001900120029001A93248FEF772FA2F
:102AB000002001900220029001A92E48FEF76AFA38
:102AC000022003900B2001900320029001A92948C5
:102AD000FEF760FA0C2001900420029001A925481D
:102AE000FEF758FA0720039010200190052002906D
:102AF00001A92048FEF74EFA1E48006880681F4969
:102B000008431C49096888601A480068806840F0DA
:102B1000010018490968886000BF1448406940F006
:102B20000100124948610846406900F00100009028
:102B300000BF00BF0020124988600520C8600C4813
:102B40004C3008610F48486140F6A2208860084672
:102B5000806840F001008860002211460B20FFF7DA
:102B6000BCF80B20FFF7ACF805B000BD0010024028
:102B7000002401407002002000000140000180009C
:102B800000000240EC0300201FB500BF2F48806901
:102B900040F480602D4988610846806900F48060B7
:102BA000009000BF00BF2A482A49086081152948C3
:102BB00081600021C16041614FF46021C16100204A
:102BC00024494860052123480161FEF793FA01205A
:102BD00003900F2001900120029001A91D48FEF7EB
:102BE000D9F90D2001900220029001A91948FEF7A1
:102BF000D1F9022003900A2001900320029001A93C
:102C00001448FEF7C7F9022001900420029001A9A0
:102C10001048FEF7BFF9072003900320019005201C
:102C2000029001A90B48FEF7B5F90A4800688068D0
:102C300040F4807007490968886006480068806829
:102C400040F001000349096888601FBD0010024080
:102C500000280140A002002000B585B000BF7F48D9
:102C6000806940F004007D4988610846806900F071
:102C70000400009000BF00BF00BF0846806940F01C
:102C8000080088610846806900F00800009000BFD5
:102C900000BF00BF0846806940F010008861084608
:102CA000806900F01000009000BF00BF002002907B
:102CB0000390022004902020019001A96848FEF7AB
:102CC000D7FD4020019001A96548FEF7D1FD802085
:102CD000019001A96248FEF7CBFD4FF4806001909E
:102CE00001A96048FEF7C4FD4FF40060019001A9FE
:102CF0005C48FEF7BDFD4FF48050019001A9594892
:102D0000FEF7B6FD4FF48050019001A95648FEF73A
:102D1000AFFD0220019001A95348FEF7A9FD012053
:102D200002900420019001A94D48FEF7A1FD10205A
:102D3000019001A94C48FEF79BFD2020019001A9BC
:102D40004948FEF795FD032002900120019001A95A
:102D50004448FEF78DFD0120019001A94248FEF78D
:102D600087FD0820019001A93E48FEF781FD022061
:102D7000019001A93B48FEF77BFD1020019001A9BD
:102D80003848FEF775FD2020019001A93548FEF76F
:102D90006FFD0420019001A93248FEF769FD08206B
:102DA000019001A93048FEF763FD0420019001A9BC
:102DB0002D48FEF75DFD022002904020019001A900
:102DC0002848FEF755FD8020019001A92548FEF70F
:102DD0004FFD4FF48070019001A92248FEF748FD95
:102DE0008020019001A92048FEF742FD01200190BA
:102DF00001A91B48FEF73CFD0220019001A91848DB
:102E0000FEF736FD4FF48070019001A91648FEF7D9
:102E10002FFD4FF40070019001A91348FEF728FD23
:102E20004FF48060019001A90F48FEF721FD4FF497
:102E30000050019001A90A48FEF71AFD4FF48040A6
:102E4000019001A90648FEF713FD4FF400400190E0
:102E500001A90348FEF70CFD05B000BD00100240BB
:102E6000000C0140001001400008014000B597B07F
:102E700000BF7E48806940F400607C498861084654
:102E8000806900F40060019000BF00BF00BF0846E9
:102E9000806940F4005088610846806900F4005061
:102EA000019000BF00BF724872490860002048606E
:102EB0002021704881604FF4FA61C16000210161F6
:102EC00041618161FFF7A9FC102015900020169048
:102ED00015A96848FFF7D6FB60200E9000200F90E0
:102EE0001090082011900020129013904FF4007061
:102EF000149000220EA95F48FFF70BFC04220EA9D4
:102F00005C48FFF706FC08220EA95A48FFF701FCAF
:102F10004FF4006007904010089000200990202096
:102F20000A9000200B900C900D9007A95148FFF7D4
:102F30006AFB5148514908600020486020214F48F1
:102F400081604FF4FA61C1600021016141618161DA
:102F5000FFF763FC202015908020169015A94748A4
:102F6000FFF790FB002003900520029002A9434840
:102F7000FFF794FC60200E9000200F901090082026
:102F800011900020129013904FF4007014900022C2
:102F90000EA93A48FFF7BDFB04220EA93748FFF7F8
:102FA000B8FB08220EA93548FFF7B3FB4FF40060C9
:102FB0000790401008900020099020200A900020DF
:102FC0000B900C900D9007A92C48FFF71CFB2A488A
:102FD0004430006820F40040274944310860244808
:102FE0004430006820F40040214944310860002149
:102FF0002248FFF72DFC04212048FFF729FC082177
:103000001E48FFF725FC00211C48FFF76CFB04213C
:103010001A48FFF768FB08211848FFF764FB0021F6
:103020001448FFF715FC04211248FFF711FC082192
:103030001048FFF70DFC00210E48FFF754FB042158
:103040000C48FFF750FB08210A48FFF74CFB012012
:103050000A490968086307480068006840F00100F1
:1030600004490968086017B000BD00000010024064
:10307000002C0140F001002000340140300200200B
:1030800000BFFEE77047000002480068C0F302205E
:10309000704700000CED00E010B5002807DA0A07C1
:1030A000140E054A00F00F031B1FD45403E00A0757
:1030B000130E024A135410BD18ED00E000E400E0C6
:1030C0007047000008B508490968C9084FF47A72CA
:1030D000B1FBF2F14143009100BF00BF00994A1ECD
:1030E00000920029F9D108BDB0000020704700000F
:1030F00010B509480068401C074908600846006888
:103100000649884202D9002003490860FEF768FD9D
:10311000FFF775FA10BD0000A000002040771B00EB
:1031200010B596B002200C90012010901020119044
:1031300002201390002114914FF4601115910CA8F6
:10314000FFF70EF80F20079002200890002009904A
:103150004FF480600A9000200B90022107A8FEF730
:10316000A7FE022001904FF44040039001A8FEF713
:1031700007FEFEF785FF4FF47A71B0FBF1F42046AD
:10318000FFF723FA0420FFF70BFA00221146501E26
:10319000FEF7A3FD16B010BD1148006840F0010015
:1031A0000F490860084640680E4908400C494860CD
:1031B000084600680C49084009490860084600684C
:1031C00020F4802008600846406820F4FE00486033
:1031D0004FF41F008860C80304490860704700006E
:1031E000001002400000FFF8FFFFF6FE08ED00E0CF
:1031F000002202681F4B98420ED01F4B98420BD002
:10320000B0F1804F08D01D4B984205D01C4B98421E
:1032100002D01C4B984203D122F070024B681A4333
:10322000144B98420ED0144B98420BD0B0F1804F03
:1032300008D0124B984205D0114B984202D0114B46
:10324000984203D122F44072CB681A4322F08002E4
:103250004B691A4302608B68C3620B688362054B3B
:10326000984202D0044B984201D10B6903630123B9
:1032700043617047002C01400034014000040040CD
:1032800000080040000C004030B50023012404FA7F
:1032900001F3046A9C430462046A02FA01F52C43B8
:1032A000046230BD30B50023042404FA01F3046A3B
:1032B0009C430462046A02FA01F52C43046230BDA7
:1032C00030B50C460021816821F47F4142EA032594
:1032D00025432943816030BD30B5002400220023FE
:1032E000056A25F001050562026A4368846924F0D5
:1032F000700424F003040D682C4322F002028D6850
:103300002A43114DA84200D103E0104DA84206D136
:1033100000BF22F00802CD682A4322F004020A4DC1
:10332000A84202D0094DA84207D123F4807323F4A8
:1033300000734D692B438D692B43436084614D6855
:103340004563026230BD0000002C014000340140A2
:1033500030B5002400220023056A25F0100505621F
:10336000026A4368846924F4E04424F440740D68DC
:1033700044EA052422F020028D6842EA0512124D2B
:10338000A84200D103E0114DA84207D100BF22F0AE
:103390008002CD6842EA051222F040020A4DA8429E
:1033A00002D00A4DA84209D123F4806323F40063BC
:1033B0004D6943EA85038D6943EA8503436084616F
:1033C0004D688563026230BD002C0140003401402D
:1033D00030B5002400220023056A25F480750562BB
:1033E000026A4368C46924F0700424F003040D6881
:1033F0002C4322F400728D6842EA0522124DA84245
:1034000000D103E0114DA84207D100BF22F40062B1
:10341000CD6842EA052222F480620B4DA84202D018
:103420000A4DA84209D123F4805323F400534D6977
:1034300043EA05138D6943EA05134360C4614D688F
:10344000C563026230BD0000002C01400034014021
:1034500030B5002200230024056A25F4805505625A
:10346000036A4468C26922F4E04222F440720D68A3
:1034700042EA052223F400538D6843EA0533084DE0
:10348000A84202D0074DA84204D124F480444D69DB
:1034900044EA85144460C2614D680564036230BD2E
:1034A000002C0140003401402DE9F04104460D4656
:1034B00000260027B0462068866826F070066868F7
:1034C000064326F007062868064320688660686879
:1034D00000F00F01002935D10011082832D2DFE8B1
:1034E00000F02D2E2F300B212704D5E90313AA68F5
:1034F0002068FFF7E5FE26E02068D0F820802068ED
:10350000006A20F00100216808622068876927F0BE
:10351000F007286947EA0017206887612068C0F82B
:10352000208010E02A69A968206800F00FF80AE0FE
:103530002A69A968206800F01EF804E003E002E0B0
:1035400001E000E000BF00BFBDE8F08130B50B46F0
:10355000144600210022026A056A25F00105056271
:10356000816921F0F00141EA041122F00A021A43B4
:103570008161026230BD30B50B4614460021002245
:10358000056A25F0100505628169026A21F470411F
:1035900041EA043122F0A00242EA03128161026290
:1035A00030BD000000B585B000BF5048C06940F490
:1035B00000304E49C8610846C06900F400300090F0
:1035C00000BF00BF062205211020FEF786FB102059
:1035D000FEF776FB072205211120FEF77EFB112066
:1035E000FEF76EFB4248434908604FF4964048603E
:1035F000002140488160C16001610C2141610021CE
:103600008161FFF777F900BF3848406940F0010059
:10361000364948610846406900F00100009000BF4B
:1036200000BF00BF0846806940F00400886108467A
:10363000806900F00400009000BF00BF00BF084692
:10364000C06940F40030C8610846C06900F4003029
:10365000009000BF00BF01200390042001900220D1
:1036600002900320049001A92348FEF701F90820E5
:1036700001900020029001A91F48FEF7F9F81F48A9
:103680001F4908600020486000211D48816080219A
:10369000C160002101614161202181610021C1617E
:1036A000FEF73EF800BF1648124948630846144921
:1036B000486200BF11481430124908601020486069
:1036C0000021104881608021C160002101614161B9
:1036D0008161C161FEF724F800BF0A48054908630B
:1036E00008460849486200BF05B000BD001002400E
:1036F0000044004024030020000801406C00024008
:1037000064030020A803002070B506460025746AF3
:1037100020684069C0F3C01594F83900212805D10C
:1037200025B10020E084204600F050F82068406970
:10373000C0F3801594F83A00222805D125B1002065
:10374000E085204600F032F8E06B40F01000E063C6
:103750002046FFF7CEF870BD70B505466C6A286844
:10376000006800F02000B0B90020E0852068C06843
:1037700020F480702168C8602068406920F0010052
:10378000216848612068406920F040002168486154
:10379000202084F83A002046FFF748F970BD70B544
:1037A0000446656A2846FFF742F970BD0168C9689A
:1037B00021F490710268D1600168496921F001012A
:1037C00002685161202180F83A1070470168C96889
:1037D00021F0C0010268D160202180F839107047C3
:1037E00000B595B000BF2648C06940F48020244948
:1037F000C8610846C06900F48020009000BF00BF87
:1038000000BF0846406940F0010048610846406931
:1038100000F00100009000BF00BF1A4805904FF46F
:10382000E1300690002107910891099108210A9141
:1038300000210B910C9105A8FFF75CF8114814309A
:10384000006840F080000F491431086008150190AD
:1038500001200390022002900320049001A90A484D
:10386000FEF706F800200949C8610648001D4862B5
:10387000002008629020C8617020486015B000BD2B
:103880000010024000480040000C014000000240CF
:103890002DE9F041044600252068006920F44050DD
:1038A000E1680843216808612169A06808436169EB
:1038B000084305432068C06841F20C6188432843EF
:1038C0002168C8602068406920F44070A1690843FD
:1038D000216848615F49206888425CD1FEF7E6FBB9
:1038E00000EBC00101EB001061688900B0FBF1F64C
:1038F000FEF7DCFB00EBC00101EB00106168890002
:10390000B0FBF1F06421B0FBF1F000EBC00101EB82
:103910000010A6EB8000322101EB00106421B0FB07
:10392000F1F000F0F006FEF7C1FB00EBC00101EB87
:10393000001061688900B0FBF1F06421B0FBF1F088
:1039400006EB0016FEF7B2FB00EBC00101EB001026
:1039500061688900B0FBF1F7FEF7A8FB00EBC0013E
:1039600001EB001061688900B0FBF1F06421B0FB4D
:10397000F1F000EBC00101EB0010A7EB8000322159
:1039800001EB00106421B0FBF1F000F00F003044B7
:10399000216888605BE0FEF779FB00EBC00101EB7A
:1039A000001061688900B0FBF1F6FEF76FFB00EBD9
:1039B000C00101EB001061688900B0FBF1F06421E7
:1039C000B0FBF1F000EBC00101EB0010A6EB8000B2
:1039D000322101EB00106421B0FBF1F000F0F006A1
:1039E000FEF754FB00EBC00101EB00106168890099
:1039F000B0FBF1F06421B0FBF1F006EB0016FEF72E
:103A000045FB00EBC00101EB001061688900B0FBD1
:103A1000F1F7FEF73BFB00EBC00101EB0010616822
:103A20008900B0FBF1F06421B0FBF1F000EBC001C4
:103A300001EB0010A7EB8000322101EB00106421A4
:103A4000B0FBF1F000F00F00304421688860BDE861
:103A5000F08100000038014000BFFEE702E008C826
:103A6000121F08C1002AFAD170477047002001E0F8
:103A700001C1121F002AFBD1704730B5039C0629F3
:103A800028D2DFE801F003090F151B21002515607E
:103A900018604542256022E0454215601860002507
:103AA00025601CE04542156000251D60206016E081
:103AB0000025156045421D60206010E01060454201
:103AC0001D60002525600AE0106000251D6045424C
:103AD000256004E0002515601D60256000BF00BF63
:103AE00030BD10B5062812D2DFE800F00306080A40
:103AF0000C0E8C1A1C600DE019600BE0196009E0D7
:103B00001A6007E01A6005E0541A1C6002E0002405
:103B10001C6000BF00BF10BD2DE9F04F89B0834885
:103B2000406B00684068C0F11E071E228049814832
:103B3000FCF72AFB80480068A7EB000800200890EB
:103B400000250024002605900490B8F1000F01DA4A
:103B500008F11E08B8F10A0F02DA09B0BDE8F08FCB
:103B60000FB91D2400E07C1EB6E00A2D0DD2DFE85F
:103B700005F0050D171D23293139414F6D48005DB2
:103B80006E490978884200D16D1C9DE06948005D4E
:103B90006B490978884201D16D1C00E0002593E053
:103BA0006448005D4FFA80FA6D1C8DE06148005D4D
:103BB0004FFA80F96D1C87E05E48065D61484671EA
:103BC0006D1C81E05B48005D06905E4906980871B7
:103BD0006D1C79E05748005D07905A490798C870F6
:103BE0006D1C71E0534810F804B0564880F802B0DC
:103BF0006D1C69E04F48005D53490978884205D142
:103C0000514800784F4948706D1C00E000255BE08A
:103C10004848005D4D490978884251D14548005DCA
:103C2000484908700621474800F09DF80490049820
:103C3000C0B203900498000A029009F0FF010398B3
:103C4000814201D1012000E0002001900AF0FF0133
:103C50000298814201D1012000E0002000900198EB
:103C600058B3009848B33A480078B04225D04EB9CE
:103C700037480078642813D036480088401C3549FE
:103C800008800DE032480078301A012808DD3048FD
:103C90000078301A401E2F49098808442D490880B1
:103CA0002B480670012005901FB91D20224908608D
:103CB00008E0781E2049086004E00020059001E03B
:103CC00000200590002500BF00BF0898401C089008
:103CD000641E002C00DA1D240898404503DA05987C
:103CE00000283FF442AF0598E8B11B480088401C0B
:103CF00019490880194981F8059081F806A00846FD
:103D000080F802B0069808710798C870042114481A
:103D1000FDF756FF1048008842F21071884202DD1C
:103D200000200D49088000BF17E700002403002091
:103D3000280100204601002070000020890000209A
:103D400088000020680000208700002086000020F6
:103D5000740000208C0000208A00002064010020F4
:103D6000000C0140704770B502460B464FF6FF71DC
:103D700013B9C84380B270BD00BF002412F8015BC4
:103D80000EE001F0010005F00106704020B148F29C
:103D9000084080EA510100E04908601CC4B26D0887
:103DA000082CEEDB581E80B2031EE6D188B2E2E793
:103DB00088B0FDF721FF00BFFE48806940F0010098
:103DC000FC4988610846806900F00100079000BF47
:103DD00000BF0320FDF7C0FF002211466FF00B006B
:103DE000FDF77BFF002211466FF00A00FDF775FF1B
:103DF000002211466FF00900FDF76FFF0022114607
:103E0000501FFDF76AFF00221146101FFDF765FFE6
:103E100000221146901EFDF760FF00221146501E41
:103E2000FDF75BFFFFF77CF9E248406920F00100F5
:103E3000E0494861FEF710FFFFF718F8FEF7FAFDBA
:103E4000FEF7A2FEFFF7CCFC01222021DA48FDF7A5
:103E5000BBFEDA48FDF700FAD948FDF7FDF908275F
:103E600005E0D8490F706420FDF7EEFC7F1E002F9F
:103E7000F7DA0020D349087001220421D248FDF767
:103E8000A3FE00BF00BF0024002500BFFFF78AFB90
:103E90001E22CE49CE48FEF767FDCE49088AFCF7C0
:103EA00028FB06460120CC49087043E20221C248A3
:103EB000FDF77EFE20B90020C749087000F054FAD3
:103EC0000520FDF7C1FCFFF727FE0020C34908606D
:103ED000C3480088282190FBF1F0C249C9782839ED
:103EE00048430390FCF70AFB0746BF4ABF4BFCF769
:103EF0008EFACDE90401BE480068FCF7FFFA0746D8
:103F0000BC4ABD4BFCF783FA8246DDE90423FCF78B
:103F1000D7F9CDE90601FCF728FBB5490860B048A0
:103F20000088282190FBF1F0AE490979283900FB7F
:103F300001FA5046FCF7E2FA0746AB4AAB4BFCF7F6
:103F400066FACDE90401AD480068FCF7D7FA0746E8
:103F5000A84AA94BFCF75BFACDE90201DDE904238D
:103F6000FCF7AEF9CDE90601FCF7FFFAA3490860BA
:103F70009620086000209E49086099480088FCF758
:103F8000CEFACDE906019A480068FCF7B7FA8246F6
:103F900000229B4BFCF73BFACDE9020197480068F1
:103FA000FCF7ACFA82460022954BFCF730FACDE9DB
:103FB0000001DDE90223FCF724FACDE90401DDE983
:103FC0000623FCF71DFB04D285480088FCF7A7FAFE
:103FD00049E0834800884042FCF790FACDE90601A9
:103FE00083480068FCF78AFA0022854BCDE900017E
:103FF000FCF70DFA82468B4680480068FCF77EFA93
:1040000000227F4BCDE90001FCF701FA52465B46E6
:10401000CDE90201FCF7F5F9CDE90401DDE906235C
:10402000FCF7D6FA05D26E4800884042FCF766FAE3
:1040300019E06F480068FCF761FA82460022704B75
:10404000FCF7E5F9CDE906016C480068FCF756FA83
:10405000824600226A4BFCF7DAF9CDE90401DDE97A
:104060000623FCF7CEF90746FCF77FFA05465C48C5
:104070000088FCF754FACDE906015D480068FCF7BA
:104080003DFA824600225E4BFCF7C1F9CDE9020100
:104090005A480068FCF732FA82460022584BFCF777
:1040A000B6F9CDE90001DDE90223FCF709F9CDE914
:1040B0000401DDE90623FCF7A3FA04D2484800888E
:1040C000FCF72DFA48E0464800884042FCF716FA13
:1040D000CDE9060146480068FCF710FA8246002246
:1040E000474BFCF794F9CDE9020144480068FCF71E
:1040F00005FA82460022424BFCF789F9CDE900011E
:10410000DDE90223FCF7DCF8CDE90401DDE9062353
:10411000FCF75EFA05D2324800884042FCF7EEF91F
:104120001AE033480068FCF7E9F90022344BCDE986
:104130000401FCF76CF9CDE9060130480068FCF792
:10414000DDF900222E4BCDE90401FCF760F982462F
:10415000DDE90623FCF7B4F80746FCF706FA044647
:104160001E480068052804D268422649086026488F
:10417000046000BF00BF254800681921B0FBF1F2C0
:1041800001FB120000287DD11249088AFCF7B1F921
:104190000390FCF709FA07461D4A1E4BFCF737F956
:1041A00082468B463046FCF7FFF907461A4A1B4BFE
:1041B00036E00000001002400008014070020020BC
:1041C000A002002018000020000C0140280100205F
:1041D00024030020EC030020200000205C000020CD
:1041E00084000020640100209A9999999999B93F17
:1041F00090000020CDCCCCCCCCCCEC3F9400002067
:104200000000E03F0C000020080000209800002083
:104210007B14AE47E17A843FAE47E17A14AEEF3FBC
:10422000FCF7F5F852465B46CDE90401FCF748F887
:10423000CDE90601FCF7FCF906463F493046FCF79C
:1042400007F880463D49FCF709F807463C49FBF76B
:10425000ADFF81462946022000F0AEF8214603203A
:1042600000F0AAF837488189042000F0A5F8364903
:1042700036480068FBF7F2FF8046FCF75DF9074619
:10428000394600E014E0052000F096F83046FCF7CF
:1042900053F907463946062000F08EF84846FCF7E9
:1042A0004BF907463946072000F086F8FFF75AFD1C
:1042B00000BF274925480068FCF7D6F907D202203D
:1042C0002449087016202449087000F04DF800BFFA
:1042D00022491E480068FCF7C7F906D220491B484E
:1042E0000068FCF7CBF900D200BF1D4917480068F1
:1042F000FCF7BAF90DD2164914480068FCF7BEF96C
:1043000007D200BF05201349087006201249087023
:1043100010E01448006810F1320F06DA05200D494C
:10432000087001200C49087004E000200949087059
:1043300009490870BAE5000000E0CE44083748BEDD
:1043400033330F42EC0300200000C8424400002039
:10435000CCCC0642180000201C00002000001042B7
:1043600000000C429400002000200F4908700F4903
:104370000870002405E00E490C706420FDF764FA13
:10438000641C082CF7DB002220210A48FDF71CFCE6
:1043900008E0002220210748FDF716FC72B6002035
:1043A00003490870F5E700001C00002020000020F1
:1043B0001800002000080140014A22F81010704740
:1043C00018010020D00700000000020104050300CE
:1043D000400600000000000000000000010203048D
:1043E0000607080900000000010203040C4400084D
:1043F00000000020B40000005C3A0008C04400083F
:10440000B4000020D40700006C3A0008000000004F
:10441000000000000000000000000000000000009C
:10442000000000000000000000000000000000008C
:104430000000000000000000D0070000D0070000CE
:10444000D0070000D0070000D0070000D007000010
:1044500000002042000000000000000000000000FA
:1044600000000000000000006400000000000000E8
:10447000000000000000000000000000000000003C
:10448000FF0000000000000000000000000000002D
:104490005802F1F2E3E40000000000000000000018
:1044A000000000000000000000000000000000000C
:1044B00000000000100000000100000000A24A04FB
:0400000508000131BD
:00000001FF
